:100000000C942A000C944C1D0C9447000C9447004F
:100010000C9447000C9447000C9447000C94470044
:100020000C9447000C9447000C9447000C94470034
:100030000C9447000C9447000C9447000C94470024
:100040000C9447000C9447000C9447000C94470014
:100050000C94470011241FBECFE5D8E0DEBFCDBF12
:1000600012E0A0E6B0E0E6EAFCE602C005900D92E0
:10007000AA3BB107D9F712E0AAEBB2E001C01D928A
:10008000AE3BB107E1F70E9401090C9451360C9484
:100090000000EF92FF920F931F937B018C0120E0F1
:1000A00030E040E05FE40E94F50388238CF0C80153
:1000B000B70120E030E040E05FE40E94C1010E940F
:1000C00055049B01AC01205030404040504806C0D0
:1000D000C801B7010E9455049B01AC01B901CA01D6
:1000E0001F910F91FF90EF900895A0E0B0E0EBE733
:1000F000F0E00C941A36DC012B01FA019C9192304D
:1001000008F439C1EB018881823008F433C194309E
:1001100069F4843009F02FC111969C91119789815F
:10012000981709F428C1A2EBB1E025C1843009F485
:1001300021C18230A9F4923009F01DC19A01AD01AC
:1001400088E0EA010990AE01E90109929E0181501F
:10015000C1F7E201898111969C918923818308C1AD
:10016000923009F407C112962D903C901397EB0141
:100170008A819B811496AD90BD90CD90DC901797AD
:10018000EC80FD800E811F819101281B390BB90184
:1001900037FF04C066277727621B730B6032710537
:1001A0000CF061C0121613066CF537014801062EDB
:1001B00004C096948794779467940A94D2F721E0C8
:1001C00030E040E050E004C0220F331F441F551FB1
:1001D0006A95D2F721503040404050402E213F21B7
:1001E00040235123211531054105510521F021E01E
:1001F00030E040E050E079018A01E628F72808293C
:1002000019293CC0232BD1F1260E371E350146019A
:10021000062E04C096948794779467940A94D2F734
:1002200021E030E040E050E004C0220F331F441FC3
:10023000551F6A95D2F721503040404050402A2146
:100240003B214C215D21211531054105510521F04E
:1002500021E030E040E050E059016A01A628B728CB
:10026000C828D9280BC0821593052CF01C01AA249C
:10027000BB24650103C0EE24FF24870111969C91E5
:10028000D20111968C91981709F445C0992339F041
:10029000A80197012A193B094C095D0906C0A6016E
:1002A00095012E193F09400B510B57FD08C01182D3
:1002B0003382228224833583468357831DC081E0A5
:1002C00081833382228288279927DC01821B930B4A
:1002D000A40BB50B84839583A683B7830DC0220F2F
:1002E000331F441F551F24833583468357838281E0
:1002F000938101979383828324813581468157813D
:10030000DA01C9010197A109B1098F5F9F4FAF4F72
:10031000BF4328F30BC0918333822282EA0CFB1C7B
:100320000C1D1D1DE482F5820683178383E0808304
:10033000248135814681578157FF1AC0C901AA27F8
:1003400097FDA095BA2F81709070A070B0705695EF
:10035000479537952795822B932BA42BB52B848318
:100360009583A683B7838281938101969383828349
:10037000DF0101C0D201CD01CDB7DEB7E2E10C94BF
:100380003636A0E2B0E0E7ECF1E00C942636698363
:100390007A838B839C832D833E834F835887E9E048
:1003A000EE2EF12CEC0EFD1ECE010196B7010E943F
:1003B00046068E010F5E1F4FCE010596B8010E94C2
:1003C00046068A8991E089278A8BC701B801AE0168
:1003D000475E5F4F0E9475000E947105A096E6E09F
:1003E0000C944236A0E2B0E0E8EFF1E00C9426363F
:1003F00069837A838B839C832D833E834F835887C5
:10040000F9E0EF2EF12CEC0EFD1ECE010196B701A6
:100410000E9446068E010F5E1F4FCE010596B80161
:100420000E944606C701B801AE01475E5F4F0E94B9
:1004300075000E947105A096E6E00C944236A0E299
:10044000B0E0E5E2F2E00C941A3669837A838B839C
:100450009C832D833E834F835887CE010196BE0136
:10046000675F7F4F0E944606CE010596BE016F5E14
:100470007F4F0E9446069985923088F089898230A4
:10048000C8F0943019F4823051F404C0843029F457
:10049000923081F482EB91E0C6C0923049F420E0C2
:1004A0009A858A89981321E02A87CE010996BBC0D4
:1004B000823049F420E09A858A89981321E02A8BBA
:1004C000CE014196B0C02D843E844F8458886D88FB
:1004D0007E888F88988CEE24FF248701AA24BB2471
:1004E000650140E050E060E070E0E0E0F0E0C10174
:1004F00081709070892BE9F0E60CF71C081D191D1E
:100500009A01AB012A0D3B1D4C1D5D1D80E090E062
:10051000A0E0B0E0E614F7040805190520F481E036
:1005200090E0A0E0B0E0BA01A901480F591F6A1F8E
:100530007B1FAA0CBB1CCC1CDD1C97FE08C081E0F5
:1005400090E0A0E0B0E0A82AB92ACA2ADB2A3196B6
:10055000E032F10549F0660C771C881C991C569412
:10056000479437942794C3CFFA85EA892B893C892D
:100570008B859C85280F391F2E5F3F4F17C0CA01FE
:1005800081709070892B61F016950795F794E79428
:1005900080E090E0A0E0B0E8E82AF92A0A2B1B2BC3
:1005A00076956795579547952F5F3F4F77FDE7CF36
:1005B0000CC0440F551F661F771F17FD4160EE0CDE
:1005C000FF1C001F111F21503040403090E05907A0
:1005D00090E0690790E4790760F32B8F3C8FDB0193
:1005E000CA018F779070A070B07080349105A1051A
:1005F000B10561F447FD0AC0E114F10401051105DC
:1006000029F0405C5F4F6F4F7F4F40781A8EFE1786
:1006100011F081E08A8F4D8F5E8F6F8F78A383E01A
:10062000898FCE0149960E947105A096E2E10C9453
:100630003636A8E1B0E0EFE1F3E00C9422366983AE
:100640007A838B839C832D833E834F835887B9E0C5
:10065000EB2EF12CEC0EFD1ECE010196B7010E948F
:1006600046068E010F5E1F4FCE010596B8010E940F
:1006700046062985223008F47EC03989323010F4CC
:10068000B8017CC08A859A8989278A87243011F02D
:10069000223031F4231709F06EC062EB71E06EC0B6
:1006A000343039F41D861E861F86188A1C861B86E8
:1006B00004C0323021F484E08987B7015FC02B8504
:1006C0003C858B899C89281B390B3C872B87ED84C3
:1006D000FE840F851889AD88BE88CF88D88CEA142F
:1006E000FB040C051D0540F4EE0CFF1C001F111F40
:1006F000215030403C872B8720E030E040E050E044
:1007000080E090E0A0E0B0E460E070E0EA14FB0478
:100710000C051D0540F0282B392B4A2B5B2BEA18C2
:10072000FB080C091D09B695A79597958795EE0CC2
:10073000FF1C001F111F6F5F7F4F6F31710531F775
:10074000DA01C9018F779070A070B0708034910584
:10075000A105B10561F427FD0AC0E114F10401050A
:10076000110529F0205C3F4F4F4F5F4F20782D87B8
:100770003E874F87588BBE01675F7F4FCB010E943A
:1007800071056896EAE00C943E36A8E1B0E0EBEC27
:10079000F3E00C94263669837A838B839C832D83C4
:1007A0003E834F83588789E0E82EF12CEC0EFD1E26
:1007B000CE010196B7010E9446068E010F5E1F4FC3
:1007C000CE010596B8010E9446068985823040F028
:1007D0008989823028F0C701B8010E94BE0601C095
:1007E0008FEF6896E6E00C944236A8E1B0E0EBEFBC
:1007F000F3E00C94263669837A838B839C832D8364
:100800003E834F83588789E0E82EF12CEC0EFD1EC5
:10081000CE010196B7010E9446068E010F5E1F4F62
:10082000CE010596B8010E9446068985823040F0C7
:100830008989823028F0C701B8010E94BE0601C034
:100840008FEF6896E6E00C944236A8E1B0E0EBE268
:10085000F4E00C94263669837A838B839C832D8302
:100860003E834F83588789E0E82EF12CEC0EFD1E65
:10087000CE010196B7010E9446068E010F5E1F4F02
:10088000CE010596B8010E9446068985823040F067
:100890008989823028F0C701B8010E94BE0601C0D4
:1008A00081E06896E6E00C944236ACE0B0E0EBE51F
:1008B000F4E00C942A3669837A838B839C83CE017F
:1008C0000196BE016B5F7F4F0E9446068D8182308C
:1008D00061F1823050F1843021F48E81882351F10E
:1008E0002EC02F81388537FD20C06E812F31310514
:1008F0001CF06623F9F023C08EE190E0821B930B7D
:1009000029853A854B855C8504C056954795379572
:1009100027958A95D2F76623B1F05095409530958A
:1009200021953F4F4F4F5F4F0EC020E030E040E039
:1009300050E009C02FEF3FEF4FEF5FE704C020E02A
:1009400030E040E050E8B901CA012C96E2E00C9496
:100950004636A8E0B0E0EFEAF4E00C9422367B01E2
:100960008C01611571058105910519F482E0898377
:1009700060C083E089838EE1C82ED12CDC82CB82DB
:10098000ED82FE820F831887C801B7010E942205FD
:10099000FC013197F7FF3BC0222733272E1B3F0B6B
:1009A00057016801022E04C0D694C794B794A79447
:1009B0000A94D2F740E050E060E070E081E090E01F
:1009C000A0E0B0E004C0880F991FAA1FBB1F2A95A2
:1009D000D2F70197A109B1098E219F21A023B1234C
:1009E0000097A105B10521F041E050E060E070E022
:1009F0004A295B296C297D294D835E836F83788723
:100A00008EE190E08E1B9F0B9C838B8312C03097EE
:100A100081F00E2E04C0EE0CFF1C001F111F0A9463
:100A2000D2F7ED82FE820F831887CE1ADF0ADC82AE
:100A3000CB821A82CE0101960E9471052896EAE0C7
:100A40000C943E36EF92FF920F931F937B018C0123
:100A500080E0E81680E0F80681E0080780E01807EB
:100A600088F48FEFE816F1040105110531F028F044
:100A700088E090E0A0E0B0E017C080E090E0A0E067
:100A8000B0E012C080E0E81680E0F80680E00807D9
:100A900081E0180728F088E190E0A0E0B0E004C011
:100AA00080E190E0A0E0B0E020E230E040E050E003
:100AB000281B390B4A0B5B0B04C016950795F7945E
:100AC000E7948A95D2F7F701E654FE4F8081281B00
:100AD000310941095109C9011F910F91FF90EF9010
:100AE0000895DF92EF92FF920F931F93FC01E48031
:100AF000F58006811781D1808081823048F480E0C2
:100B000090E0A0E1B0E0E82AF92A0A2B1B2BA5C04F
:100B1000843009F49FC0823021F4EE24FF24870141
:100B200005C0E114F1040105110519F4E0E0F0E05D
:100B300096C0628173819FEF623879070CF05BC0C9
:100B400022E83FEF261B370B2A3131052CF020E03D
:100B500030E040E050E02AC0B801A701022E04C0F6
:100B600076956795579547950A94D2F781E090E07E
:100B7000A0E0B0E004C0880F991FAA1FBB1F2A95F0
:100B8000D2F70197A109B1098E219F21A023B1239A
:100B90000097A105B10521F081E090E0A0E0B0E070
:100BA0009A01AB01282B392B4A2B5B2BDA01C901A7
:100BB0008F779070A070B07080349105A105B10559
:100BC00039F427FF09C0205C3F4F4F4F5F4F04C0EF
:100BD000215C3F4F4F4F5F4FE0E0F0E02030A0E05E
:100BE0003A07A0E04A07A0E45A0710F0E1E0F0E07D
:100BF00079018A0127C06038710564F5FB01E1586D
:100C0000FF4FD801C7018F779070A070B07080340B
:100C10009105A105B10539F4E7FE0DC080E490E02F
:100C2000A0E0B0E004C08FE390E0A0E0B0E0E80E08
:100C3000F91E0A1F1B1F17FF05C016950795F7948D
:100C4000E794319687E016950795F794E7948A958F
:100C5000D1F705C0EE24FF248701EFEFF0E06E2FFF
:100C6000679566276795902F9F77D794DD24D79453
:100C70008E2F8695492F462B582F5D29B701CA0123
:100C80001F910F91FF90EF90DF900895FC01DB0121
:100C9000408151812281622F6F7770E0221F2227CD
:100CA000221F9381892F880F822B282F30E0991FD4
:100CB0009927991F11969C93119721153105A9F534
:100CC000411551056105710511F482E037C082E8D4
:100CD0009FEF13969C938E9312979A01AB0167E056
:100CE000220F331F441F551F6A95D1F783E08C9361
:100CF0000DC0220F331F441F551F12968D919C91DA
:100D00001397019713969C938E931297203080E04F
:100D1000380780E0480780E4580758F314962D936D
:100D20003D934D935C93179708952F3F310579F4C8
:100D3000411551056105710519F484E08C930895FE
:100D400064FF03C081E08C9312C01C9210C02F5727
:100D5000304013963C932E93129783E08C9387E058
:100D6000440F551F661F771F8A95D1F7706414963C
:100D70004D935D936D937C93179708951F93DC01BA
:100D8000FB019C91923008F447C08081823008F4C6
:100D900043C0943051F411961C91843099F58181AF
:100DA000682F70E0611B71093FC0843021F09230E0
:100DB00031F48230B9F18181882389F12DC01196F7
:100DC0001C9111978230F1F081811817D9F4129695
:100DD0002D913C911397828193818217930794F010
:100DE00028173907BCF014968D919D910D90BC91F8
:100DF000A02D2481358146815781281739074A075C
:100E00005B0718F4112341F00AC082179307A40767
:100E1000B50740F4112319F061E070E005C06FEFF1
:100E20007FEF02C060E070E0CB011F910895DF9377
:100E3000CF93CDB7DEB780E067E041E00E946B243E
:100E400081E064E041E00E946B2482E061E041E0E7
:100E50000E946B24CF91DF910895DF93CF93CDB79C
:100E6000DEB762970FB6F894DEBF0FBECDBF81E04C
:100E70008093BA0280E067E040E00E94652582E04E
:100E800061E041E00E94652586E00E94C31DCC011F
:100E9000A0E0B0E0BC01CD010E94A904DC01CB01BF
:100EA000BC01CD0120E030E040E950E40E941F0287
:100EB000DC01CB01BC01CD012DEC3CE246E654E463
:100EC0000E941903DC01CB01BC01CD012DEC3CECEF
:100ED0004CEC5EE30E941F02DC01CB018F87988BF4
:100EE000A98BBA8B8091BB02813051F41092BB0266
:100EF00082E061E040E00E9465250E9462338EC07E
:100F00008F859889A989BA89BC01CD010E94663470
:100F100080E690E00E94BF3280E090E0AAEFB3E468
:100F20008B879C87AD87BE876B857C858D859E85ED
:100F300020E030E04AE753E40E941F02DC01CB01CD
:100F40008F839887A987BA876F81788589859A85E5
:100F500020E030E040E85FE30E94250488232CF481
:100F600081E090E09E838D833FC06F817885898585
:100F70009A8520E03FEF4FE757E40E94C50318161B
:100F80004CF56B857C858D859E8520E030E040E2C8
:100F900051E40E941F02DC01CB01BC01CD010E9483
:100FA0004900DC01CB019E838D830FC089E190E075
:100FB0009C838B838B819C810197F1F79C838B832E
:100FC0008D819E8101979E838D838D819E81009767
:100FD00069F714C06F81788589859A850E944900D8
:100FE000DC01CB019E838D838D819E819A838983D1
:100FF00089819A810197F1F79A8389830E946233EC
:101000008091BB02813009F03FCF1092BB0282E099
:1010100061E040E00E9465250E94623362960FB64F
:10102000F894DEBF0FBECDBFCF91DF910895DF935F
:10103000CF93CDB7DEB762970FB6F894DEBF0FBE81
:10104000CDBF81E08093BA0282E061E041E00E947E
:10105000652580E067E041E00E94652586E00E940A
:10106000C31DCC01A0E0B0E0BC01CD010E94A904E9
:10107000DC01CB01BC01CD0120E030E040E950E4CF
:101080000E941F02DC01CB01BC01CD012DEC3CE232
:1010900046E654E40E941903DC01CB01BC01CD01FA
:1010A00020E030E040E850E40E941F02DC01CB0168
:1010B0008F87988BA98BBA8B8091BB02813051F4BA
:1010C0001092BB0282E061E040E00E9465250E9430
:1010D00062338EC08F859889A989BA89BC01CD01F8
:1010E0000E94663480E690E00E94BF3280E090E08B
:1010F000AAEFB3E48B879C87AD87BE876B857C8521
:101100008D859E8520E030E04AE753E40E941F026F
:10111000DC01CB018F839887A987BA876F81788597
:1011200089859A8520E030E040E85FE30E9425044D
:1011300088232CF481E090E09E838D833FC06F81F3
:10114000788589859A8520E03FEF4FE757E40E9434
:10115000C50318164CF56B857C858D859E8520E032
:1011600030E040E251E40E941F02DC01CB01BC01EF
:10117000CD010E944900DC01CB019E838D830FC00D
:1011800089E190E09C838B838B819C810197F1F7AF
:101190009C838B838D819E8101979E838D838D811E
:1011A0009E81009769F714C06F81788589859A853B
:1011B0000E944900DC01CB019E838D838D819E813D
:1011C0009A83898389819A810197F1F79A83898328
:1011D0000E9462338091BB02813009F03FCF1092B0
:1011E000BB0282E061E040E00E9465250E9462331C
:1011F00062960FB6F894DEBF0FBECDBFCF91DF91E0
:1012000008950F931F93DF93CF93CDB7DEB7C157E8
:10121000D1400FB6F894DEBF0FBECDBFFE01EE5930
:10122000FE4F81E08083FE01EF59FE4F81E0808315
:10123000FE01E05AFE4F81E08083FE01E15AFE4F3D
:1012400081E08083FE01EC59FE4F81E08083FE0146
:10125000EC59FE4F82E08183AFE5B0E0EFE5F0E0CE
:10126000808180688C9382E060E041E00E946B2482
:101270000E947D2A0E9456280E942C1DCE018C5966
:101280009E4F0E947E1D0E94001E0E9417070E9412
:10129000A52082E060E041E00E94652581E061E0F8
:1012A0000E94E23283E690E00E94BF32FE01E55ADE
:1012B000FE4F80E090E0AAEFB3E480839183A283A5
:1012C000B3838E01095A1E4FFE01E55AFE4F60811D
:1012D00071818281938120E030E04AE753E40E94EB
:1012E0001F02DC01CB01F80180839183A283B383C9
:1012F000FE01E95AFE4F608171818281938120E075
:1013000030E040E85FE30E942504882344F4FE01B6
:10131000EB5AFE4F81E090E09183808364C0FE0130
:10132000E95AFE4F608171818281938120E03FEF15
:101330004FE757E40E94C50318160CF043C0FE01A6
:10134000E55AFE4F608171818281938120E030E017
:1013500040E251E40E941F02DC01CB018E010B5AD6
:101360001E4FBC01CD010E944900DC01CB01F801F8
:10137000918380831FC0FE01ED5AFE4F89E190E00A
:1013800091838083FE01ED5AFE4F80819181019708
:10139000F1F7FE01ED5AFE4F91838083DE01AB5AD7
:1013A000BE4FFE01EB5AFE4F80819181019711964D
:1013B0009C938E93FE01EB5AFE4F808191810097A2
:1013C000D1F627C08E010B5A1E4FFE01E95AFE4F7F
:1013D00060817181828193810E944900DC01CB018F
:1013E000F80191838083DE01AF5ABE4FFE01EB5AB4
:1013F000FE4F808191818D939C93FE01EF5AFE4FA9
:10140000808191810197F1F7FE01EF5AFE4F9183A0
:1014100080830E94623381E061E00E94E23282E7D1
:1014200090E00E94BF3282E061E00E94E23280E8F8
:1014300090E00E94BF32FE01E35BFE4F80E090E04F
:10144000AAEFB3E480839183A283B3838E01075B09
:101450001E4FFE01E35BFE4F6081718182819381AB
:1014600020E030E04AE753E40E941F02DC01CB0198
:10147000F80180839183A283B383FE01E75BFE4F73
:10148000608171818281938120E030E040E85FE3F8
:101490000E942504882344F4FE01E95BFE4F81E0AD
:1014A00090E09183808364C0FE01E75BFE4F608122
:1014B00071818281938120E03FEF4FE757E40E94E2
:1014C000C50318160CF043C0FE01E35BFE4F6081BC
:1014D00071818281938120E030E040E251E40E94FA
:1014E0001F02DC01CB018E01095B1E4FBC01CD0147
:1014F0000E944900DC01CB01F801918380831FC069
:10150000FE01EB5BFE4F89E190E091838083FE0159
:10151000EB5BFE4F808191810197F1F7FE01EB5B60
:10152000FE4F91838083DE01A95BBE4FFE01E95B24
:10153000FE4F80819181019711969C938E93FE01BD
:10154000E95BFE4F808191810097D1F627C08E0123
:10155000095B1E4FFE01E75BFE4F60817181828156
:1015600093810E944900DC01CB01F80191838083C3
:10157000DE01AD5BBE4FFE01E95BFE4F80819181D4
:101580008D939C93FE01ED5BFE4F808191810197CD
:10159000F1F7FE01ED5BFE4F918380830E94623381
:1015A000FE01EE59FE4F8081882309F0C7C00E94DA
:1015B000623381E061E00E94E2328FE890E00E94B5
:1015C000BF3282E061E00E94E2328FE990E00E9447
:1015D000BF32FE01E15CFE4F80E090E0AAEFB3E491
:1015E00080839183A283B3838E01055C1E4FFE012D
:1015F000E15CFE4F608171818281938120E030E067
:101600004AE753E40E941F02DC01CB01F80180830A
:101610009183A283B383FE01E55CFE4F60817181FB
:101620008281938120E030E040E85FE30E9425045E
:10163000882344F4FE01E75CFE4F81E090E0918353
:10164000808364C0FE01E55CFE4F60817181828110
:10165000938120E03FEF4FE757E40E94C50318163F
:101660000CF043C0FE01E15CFE4F6081718182811C
:10167000938120E030E040E251E40E941F02DC014F
:10168000CB018E01075C1E4FBC01CD010E944900B9
:10169000DC01CB01F801918380831FC0FE01E95C6E
:1016A000FE4F89E190E091838083FE01E95CFE4F6B
:1016B000808191810197F1F7FE01E95CFE4F9183F2
:1016C0008083DE01A75CBE4FFE01E75CFE4F808198
:1016D0009181019711969C938E93FE01E75CFE4FDA
:1016E000808191810097D1F627C08E01075C1E4F43
:1016F000FE01E55CFE4F60817181828193810E94D1
:101700004900DC01CB01F80191838083DE01AB5CF1
:10171000BE4FFE01E75CFE4F808191818D939C93CB
:10172000FE01EB5CFE4F808191810197F1F7FE0194
:10173000EB5CFE4F918380830E94623381E061E025
:101740000E94E2328FEA90E00E94BF3282E061E0C4
:101750000E94E23286EB90E00E94BF3280EC90E083
:101760000E94BF320E947128FE01ED59FE4F808316
:10177000FE01EE59FE4F1082FE01ED59FE4F8081B1
:10178000813069F0FE01ED59FE4F8081823039F0E1
:10179000FE01ED59FE4F8081833009F001CF0E9498
:1017A0006233FE01EE59FE4F81E08083FE01ED5968
:1017B000FE4F8081282F30E0C059DE4F39832883C7
:1017C000C057D140C059DE4F88819981C057D14060
:1017D0008230910511F40C94CF16C059DE4FE88188
:1017E000F981C057D140E330F10511F40C942D1A62
:1017F000C059DE4F28813981C057D1402130310591
:1018000009F009CEFE01EF59FE4F8081882309F0CF
:10181000C7C00E94623381E061E00E94E2328FE83B
:1018200090E00E94BF3282E061E00E94E23287ECE9
:1018300090E00E94BF32FE01EF5CFE4F80E090E03E
:10184000AAEFB3E480839183A283B3838E01035D07
:101850001E4FFE01EF5CFE4F60817181828193819A
:1018600020E030E04AE753E40E941F02DC01CB0194
:10187000F80180839183A283B383FE01E35DFE4F71
:10188000608171818281938120E030E040E85FE3F4
:101890000E942504882344F4FE01E55DFE4F81E0AB
:1018A00090E09183808364C0FE01E35DFE4F608120
:1018B00071818281938120E03FEF4FE757E40E94DE
:1018C000C50318160CF043C0FE01EF5CFE4F6081AB
:1018D00071818281938120E030E040E251E40E94F6
:1018E0001F02DC01CB018E01055D1E4FBC01CD0145
:1018F0000E944900DC01CB01F801918380831FC065
:10190000FE01E75DFE4F89E190E091838083FE0157
:10191000E75DFE4F808191810197F1F7FE01E75D60
:10192000FE4F91838083DE01A55DBE4FFE01E55D24
:10193000FE4F80819181019711969C938E93FE01B9
:10194000E55DFE4F808191810097D1F627C08E0121
:10195000055D1E4FFE01E35DFE4F60817181828156
:1019600093810E944900DC01CB01F80191838083BF
:10197000DE01A95DBE4FFE01E55DFE4F80819181D4
:101980008D939C93FE01E95DFE4F808191810197CB
:10199000F1F7FE01E95DFE4F918380830E9462337F
:1019A00081E061E00E94E23285ED90E00E94BF326A
:1019B00082E061E00E94E23283EE90E00E94BF325A
:1019C000FE01ED5DFE4F80E090E0AAE7B4E4808385
:1019D0009183A283B3838E01015E1E4FFE01ED5DF4
:1019E000FE4F608171818281938120E030E04AE77F
:1019F00053E40E941F02DC01CB01F8018083918334
:101A0000A283B383FE01E15EFE4F6081718182811A
:101A1000938120E030E040E85FE30E9425048823C2
:101A200044F4FE01E35EFE4F81E090E09183808309
:101A300064C0FE01E15EFE4F60817181828193810D
:101A400020E03FEF4FE757E40E94C50318160CF063
:101A500043C0FE01ED5DFE4F608171818281938103
:101A600020E030E040E251E40E941F02DC01CB01A3
:101A70008E01035E1E4FBC01CD010E944900DC01B6
:101A8000CB01F801918380831FC0FE01E55EFE4F0C
:101A900089E190E091838083FE01E55EFE4F8081C5
:101AA00091810197F1F7FE01E55EFE4F91838083FE
:101AB000DE01A35EBE4FFE01E35EFE4F8081918199
:101AC000019711969C938E93FE01E35EFE4F8081F9
:101AD00091810097D1F627C08E01035E1E4FFE0153
:101AE000E15EFE4F60817181828193810E94490095
:101AF000DC01CB01F80191838083DE01A75EBE4F3C
:101B0000FE01E35EFE4F808191818D939C93FE01E7
:101B1000E75EFE4F808191810197F1F7FE01E75E5C
:101B2000FE4F918380830E94623381E061E00E94D6
:101B3000E2328CEE90E00E94BF3282E061E00E94CF
:101B4000E23283EF90E00E94BF32FE01EB5EFE4F77
:101B500080E090E0A6E1B3E480839183A283B38325
:101B60008E010F5E1E4FFE01EB5EFE4F60817181A4
:101B70008281938120E030E04AE753E40E941F0213
:101B8000DC01CB01F80180839183A283B383FE0142
:101B9000EF5EFE4F608171818281938120E030E0B1
:101BA00040E85FE30E942504882344F4FE01E15FDE
:101BB000FE4F81E090E09183808364C0FE01EF5E80
:101BC000FE4F608171818281938120E03FEF4FE77A
:101BD00057E40E94C50318160CF043C0FE01EB5EEB
:101BE000FE4F608171818281938120E030E040E28C
:101BF00051E40E941F02DC01CB018E01015F1E4FE8
:101C0000BC01CD010E944900DC01CB01F8019183A8
:101C100080831FC0FE01E35FFE4F89E190E0918366
:101C20008083FE01E35FFE4F808191810197F1F790
:101C3000FE01E35FFE4F91838083DE01A15FBE4F13
:101C4000FE01E15FFE4F80819181019711969C9387
:101C50008E93FE01E15FFE4F808191810097D1F666
:101C600027C08E01015F1E4FFE01EF5EFE4F6081B7
:101C70007181828193810E944900DC01CB01F801CE
:101C800091838083DE01A55FBE4FFE01E15FFE4FC1
:101C9000808191818D939C93FE01E55FFE4F808151
:101CA00091810197F1F7FE01E55FFE4F91838083FB
:101CB0000E947128FE01ED59FE4F8083FE01EF590D
:101CC000FE4F1082FE01ED59FE4F8081813039F0C8
:101CD000FE01ED59FE4F8081823009F093CDFE0167
:101CE000EF59FE4F81E08083FE01ED59FE4F808168
:101CF000282F30E0C259DE4F39832883CE56D14099
:101D0000C259DE4F88819981CE56D14081309105EC
:101D100059F0C259DE4FE881F981CE56D140E23008
:101D2000F10509F41EC477CB81E064E040E00E9435
:101D300065250E9462338AEF90E00E94BF32FE0167
:101D4000E95FFE4F80E090E0A6E9B3E480839183F1
:101D5000A283B3838E010D5F1E4FFE01E95FFE4F2C
:101D6000608171818281938120E030E04AE753E411
:101D70000E941F02DC01CB01F80180839183A283C2
:101D8000B383FE01ED5FFE4F60817181828193819B
:101D900020E030E040E85FE30E942504882344F41B
:101DA000FE01EF5FFE4F81E090E09183808364C08D
:101DB000FE01ED5FFE4F608171818281938120E0A1
:101DC0003FEF4FE757E40E94C50318160CF043C0DD
:101DD000FE01E95FFE4F608171818281938120E085
:101DE00030E040E251E40E941F02DC01CB018E0191
:101DF0000F5F1E4FBC01CD010E944900DC01CB01E9
:101E0000F801918380831FC0FE01E150FF4F89E1FB
:101E100090E091838083FE01E150FF4F80819181AA
:101E20000197F1F7FE01E150FF4F91838083DE01BE
:101E3000AF5FBE4FFE01EF5FFE4F80819181019742
:101E400011969C938E93FE01EF5FFE4F80819181EE
:101E50000097D1F627C08E010F5F1E4FFE01ED5F88
:101E6000FE4F60817181828193810E944900DC0173
:101E7000CB01F80191838083DE01A350BF4FFE01A7
:101E8000EF5FFE4F808191818D939C93FE01E35023
:101E9000FF4F808191810197F1F7FE01E350FF4FE1
:101EA000918380830E94623381E061E00E94E2328C
:101EB0008DEF90E00E94BF3282E061E00E94E2324A
:101EC0008CE091E00E94BF32FE01E750FF4F80E0BE
:101ED00090E0AAEFB3E480839183A283B3838E0161
:101EE0000B501F4FFE01E750FF4F608171818281CF
:101EF000938120E030E04AE753E40E941F02DC01B6
:101F0000CB01F80180839183A283B383FE01EB5060
:101F1000FF4F608171818281938120E030E040E851
:101F20005FE30E942504882344F4FE01ED50FF4F37
:101F300081E090E09183808364C0FE01EB50FF4F0D
:101F4000608171818281938120E03FEF4FE757E408
:101F50000E94C50318160CF043C0FE01E750FF4F66
:101F6000608171818281938120E030E040E251E420
:101F70000E941F02DC01CB018E010D501F4FBC01DE
:101F8000CD010E944900DC01CB01F80191838083DF
:101F90001FC0FE01EF50FF4F89E190E091838083E5
:101FA000FE01EF50FF4F808191810197F1F7FE0113
:101FB000EF50FF4F91838083DE01AD50BF4FFE0194
:101FC000ED50FF4F80819181019711969C938E93E4
:101FD000FE01ED50FF4F808191810097D1F627C01F
:101FE0008E010D501F4FFE01EB50FF4F608171813C
:101FF000828193810E944900DC01CB01F801918329
:102000008083DE01A151BF4FFE01ED50FF4F808163
:1020100091818D939C93FE01E151FF4F80819181CD
:102020000197F1F7FE01E151FF4F918380830E94F8
:102030006233FE01EF59FE4F8081882309F0C7C04B
:102040000E94623381E061E00E94E2328FE890E01A
:102050000E94BF3282E061E00E94E23282E191E0C0
:102060000E94BF32FE01E551FF4F80E090E0AAEFF1
:10207000B3E480839183A283B3838E0109511F4F00
:10208000FE01E551FF4F608171818281938120E0E3
:1020900030E04AE753E40E941F02DC01CB01F80163
:1020A00080839183A283B383FE01E951FF4F608156
:1020B00071818281938120E030E040E85FE30E94FB
:1020C0002504882344F4FE01EB51FF4F81E090E0AA
:1020D0009183808364C0FE01E951FF4F608171816B
:1020E0008281938120E03FEF4FE757E40E94C503D0
:1020F00018160CF043C0FE01E551FF4F608171815D
:102100008281938120E030E040E251E40E941F028E
:10211000DC01CB018E010B511F4FBC01CD010E9490
:102120004900DC01CB01F801918380831FC0FE01CF
:10213000ED51FF4F89E190E091838083FE01ED51E5
:10214000FF4F808191810197F1F7FE01ED51FF4F23
:1021500091838083DE01AB51BF4FFE01EB51FF4FF6
:1021600080819181019711969C938E93FE01EB5192
:10217000FF4F808191810097D1F627C08E010B51CE
:102180001F4FFE01E951FF4F608171818281938170
:102190000E944900DC01CB01F80191838083DE01BC
:1021A000AF51BF4FFE01EB51FF4F808191818D9365
:1021B0009C93FE01EF51FF4F808191810197F1F7D0
:1021C000FE01EF51FF4F918380830E94623381E0D3
:1021D00061E00E94E23281E291E00E94BF3282E03F
:1021E00061E00E94E2328FE291E00E94BF320E94E1
:1021F0007128FE01ED59FE4F8083FE01EF59FE4F1D
:102200001082FE01ED59FE4F8081813039F0FE01D0
:10221000ED59FE4F8081823009F00BCFFE01EF595E
:10222000FE4F81E08083FE01ED59FE4F8081282F13
:1022300030E0C459DE4F39832883CC56D140C4598D
:10224000DE4F88819981CC56D1408130910559F07B
:10225000C459DE4FE881F981CC56D140E230F10516
:1022600009F4C0C0D8C80E9462338CE391E00E9498
:10227000BF32FE01E352FF4F80E090E0AAEFB3E4EB
:1022800080839183A283B3838E0107521F4FFE0187
:10229000E352FF4F608171818281938120E030E0C1
:1022A0004AE753E40E941F02DC01CB01F80180835E
:1022B0009183A283B383FE01E752FF4F6081718156
:1022C0008281938120E030E040E85FE30E942504B2
:1022D000882344F4FE01E952FF4F81E090E09183AE
:1022E000808364C0FE01E752FF4F6081718182816B
:1022F000938120E03FEF4FE757E40E94C503181693
:102300000CF043C0FE01E352FF4F60817181828176
:10231000938120E030E040E251E40E941F02DC01A2
:10232000CB018E0109521F4FBC01CD010E94490013
:10233000DC01CB01F801918380831FC0FE01EB52C9
:10234000FF4F89E190E091838083FE01EB52FF4FC4
:10235000808191810197F1F7FE01EB52FF4F91834C
:102360008083DE01A952BF4FFE01E952FF4F8081F9
:102370009181019711969C938E93FE01E952FF4F34
:10238000808191810097D1F627C08E0109521F4F9D
:10239000FE01E752FF4F60817181828193810E942B
:1023A0004900DC01CB01F80191838083DE01AD524D
:1023B000BF4FFE01E952FF4F808191818D939C9325
:1023C000FE01ED52FF4F808191810197F1F7FE01EF
:1023D000ED52FF4F918380830E9462330E942D074C
:1023E0000C940B0A0E94623388E491E00E94BF3291
:1023F000FE01E153FF4F80E090E0AAEFB3E4808359
:102400009183A283B3838E0105531F4FFE01E153D5
:10241000FF4F608171818281938120E030E04AE743
:1024200053E40E941F02DC01CB01F80180839183F9
:10243000A283B383FE01E553FF4F608171818281E6
:10244000938120E030E040E85FE30E942504882388
:1024500044F4FE01E753FF4F81E090E091838083D5
:1024600064C0FE01E553FF4F6081718182819381D9
:1024700020E03FEF4FE757E40E94C50318160CF029
:1024800043C0FE01E153FF4F6081718182819381DE
:1024900020E030E040E251E40E941F02DC01CB0169
:1024A0008E0107531F4FBC01CD010E944900DC0182
:1024B000CB01F801918380831FC0FE01E953FF4FD8
:1024C00089E190E091838083FE01E953FF4F808191
:1024D00091810197F1F7FE01E953FF4F91838083CA
:1024E000DE01A753BF4FFE01E753FF4F808191816B
:1024F000019711969C938E93FE01E753FF4F8081C5
:1025000091810097D1F627C08E0107531F4FFE011E
:10251000E553FF4F60817181828193810E94490060
:10252000DC01CB01F80191838083DE01AB53BF4F07
:10253000FE01E753FF4F808191818D939C93FE01B3
:10254000EB53FF4F808191810197F1F7FE01EB532F
:10255000FF4F918380830E9462330E9417080C947E
:102560000B0A81E064E041E00E9465250E9462332D
:1025700082E591E00E94BF32FE01EF53FF4F80E001
:1025800090E0A6E9B3E480839183A283B3838E01B4
:1025900003541F4FFE01EF53FF4F60817181828111
:1025A000938120E030E04AE753E40E941F02DC01FF
:1025B000CB01F80180839183A283B383FE01E354AE
:1025C000FF4F608171818281938120E030E040E89B
:1025D0005FE30E942504882344F4FE01E554FF4F85
:1025E00081E090E09183808364C0FE01E354FF4F5B
:1025F000608171818281938120E03FEF4FE757E452
:102600000E94C50318160CF043C0FE01EF53FF4FA4
:10261000608171818281938120E030E040E251E469
:102620000E941F02DC01CB018E0105541F4FBC012B
:10263000CD010E944900DC01CB01F8019183808328
:102640001FC0FE01E754FF4F89E190E09183808332
:10265000FE01E754FF4F808191810197F1F7FE0160
:10266000E754FF4F91838083DE01A554BF4FFE01E5
:10267000E554FF4F80819181019711969C938E9331
:10268000FE01E554FF4F808191810097D1F627C06C
:102690008E0105541F4FFE01E354FF4F608171818D
:1026A000828193810E944900DC01CB01F801918372
:1026B0008083DE01A954BF4FFE01E554FF4F8081A6
:1026C00091818D939C93FE01E954FF4F808191810C
:1026D0000197F1F7FE01E954FF4F918380830E9437
:1026E000623381E061E00E94E2328DEF90E00E946F
:1026F000BF3282E061E00E94E2328CE091E00E9411
:10270000BF32FE01ED54FF4F80E090E0AAEFB3E44A
:1027100080839183A283B3838E0101551F4FFE01F5
:10272000ED54FF4F608171818281938120E030E020
:102730004AE753E40E941F02DC01CB01F8018083C9
:102740009183A283B383FE01E155FF4F60817181C4
:102750008281938120E030E040E85FE30E9425041D
:10276000882344F4FE01E355FF4F81E090E091831C
:10277000808364C0FE01E155FF4F608171818281D9
:10278000938120E03FEF4FE757E40E94C5031816FE
:102790000CF043C0FE01ED54FF4F608171818281D6
:1027A000938120E030E040E251E40E941F02DC010E
:1027B000CB018E0103551F4FBC01CD010E94490082
:1027C000DC01CB01F801918380831FC0FE01E55538
:1027D000FF4F89E190E091838083FE01E555FF4F33
:1027E000808191810197F1F7FE01E555FF4F9183BB
:1027F0008083DE01A355BF4FFE01E355FF4F80816B
:102800009181019711969C938E93FE01E355FF4FA2
:10281000808191810097D1F627C08E0103551F4F0B
:10282000FE01E155FF4F60817181828193810E9499
:102830004900DC01CB01F80191838083DE01A755BB
:10284000BF4FFE01E355FF4F808191818D939C9393
:10285000FE01E755FF4F808191810197F1F7FE015D
:10286000E755FF4F918380830E946233FE01EF5949
:10287000FE4F8081882309F0C7C00E94623381E047
:1028800061E00E94E2328FE890E00E94BF3282E075
:1028900061E00E94E23282E191E00E94BF32FE01DB
:1028A000EB55FF4F80E090E0AAEFB3E48083918383
:1028B000A283B3838E010F551F4FFE01EB55FF4FCF
:1028C000608171818281938120E030E04AE753E4A6
:1028D0000E941F02DC01CB01F80180839183A28357
:1028E000B383FE01EF55FF4F608171818281938137
:1028F00020E030E040E85FE30E942504882344F4B0
:10290000FE01E156FF4F81E090E09183808364C037
:10291000FE01EF55FF4F608171818281938120E03C
:102920003FEF4FE757E40E94C50318160CF043C071
:10293000FE01EB55FF4F608171818281938120E020
:1029400030E040E251E40E941F02DC01CB018E0125
:1029500001561F4FBC01CD010E944900DC01CB0193
:10296000F801918380831FC0FE01E356FF4F89E188
:1029700090E091838083FE01E356FF4F8081918137
:102980000197F1F7FE01E356FF4F91838083DE014B
:10299000A156BF4FFE01E156FF4F80819181019703
:1029A00011969C938E93FE01E156FF4F8081918199
:1029B0000097D1F627C08E0101561F4FFE01EF553B
:1029C000FF4F60817181828193810E944900DC0107
:1029D000CB01F80191838083DE01A556BF4FFE0134
:1029E000E156FF4F808191818D939C93FE01E556C6
:1029F000FF4F808191810197F1F7FE01E556FF4F6E
:102A0000918380830E94623381E061E00E94E23220
:102A100081E291E00E94BF3282E061E00E94E232F6
:102A20008FE291E00E94BF320E947128FE01ED59B1
:102A3000FE4F8083FE01EF59FE4F1082FE01ED59DB
:102A4000FE4F8081813039F0FE01ED59FE4F8081CB
:102A5000823009F00BCFFE01EF59FE4F81E08083F9
:102A6000FE01ED59FE4F8081282F30E0C659DE4F20
:102A700039832883CA56D140C659DE4F888199814F
:102A8000CA56D1408130910561F0C659DE4FE881C8
:102A9000F981CA56D140E230F10509F4C1C00C9465
:102AA0000B0A0E9462338CE391E00E94BF32FE0168
:102AB000E956FF4F80E090E0AAEFB3E48083918372
:102AC000A283B3838E010D561F4FFE01E956FF4FBF
:102AD000608171818281938120E030E04AE753E494
:102AE0000E941F02DC01CB01F80180839183A28345
:102AF000B383FE01ED56FF4F608171818281938126
:102B000020E030E040E85FE30E942504882344F49D
:102B1000FE01EF56FF4F81E090E09183808364C017
:102B2000FE01ED56FF4F608171818281938120E02B
:102B30003FEF4FE757E40E94C50318160CF043C05F
:102B4000FE01E956FF4F608171818281938120E00F
:102B500030E040E251E40E941F02DC01CB018E0113
:102B60000F561F4FBC01CD010E944900DC01CB0173
:102B7000F801918380831FC0FE01E157FF4F89E177
:102B800090E091838083FE01E157FF4F8081918126
:102B90000197F1F7FE01E157FF4F91838083DE013A
:102BA000AF56BF4FFE01EF56FF4F808191810197D5
:102BB00011969C938E93FE01EF56FF4F8081918179
:102BC0000097D1F627C08E010F561F4FFE01ED561C
:102BD000FF4F60817181828193810E944900DC01F5
:102BE000CB01F80191838083DE01A357BF4FFE0123
:102BF000EF56FF4F808191818D939C93FE01E357A7
:102C0000FF4F808191810197F1F7FE01E357FF4F5C
:102C1000918380830E9462330E942D070C940B0ADB
:102C20000E94623388E491E00E94BF32FE01E757C0
:102C3000FF4F80E090E0AAEFB3E480839183A2830A
:102C4000B3838E010B571F4FFE01E757FF4F608183
:102C500071818281938120E030E04AE753E40E9451
:102C60001F02DC01CB01F80180839183A283B3832F
:102C7000FE01EB57FF4F608171818281938120E0DB
:102C800030E040E85FE30E942504882344F4FE011D
:102C9000ED57FF4F81E090E09183808364C0FE0197
:102CA000EB57FF4F608171818281938120E03FEF7C
:102CB0004FE757E40E94C50318160CF043C0FE010D
:102CC000E757FF4F608171818281938120E030E07E
:102CD00040E251E40E941F02DC01CB018E010D573E
:102CE0001F4FBC01CD010E944900DC01CB01F8015E
:102CF000918380831FC0FE01EF57FF4F89E190E071
:102D000091838083FE01EF57FF4F8081918101976E
:102D1000F1F7FE01EF57FF4F91838083DE01AD573E
:102D2000BF4FFE01ED57FF4F8081918101971196B2
:102D30009C938E93FE01ED57FF4F80819181009708
:102D4000D1F627C08E010D571F4FFE01EB57FF4FE5
:102D500060817181828193810E944900DC01CB01F5
:102D6000F80191838083DE01A158BF4FFE01ED572A
:102D7000FF4F808191818D939C93FE01E158FF4F1D
:102D8000808191810197F1F7FE01E158FF4F918316
:102D900080830E9462330E9417080C940B0A81E022
:102DA00061E00E94E2328DEF90E00E94BF3282E04B
:102DB00061E00E94E2328CE091E00E94BF32FE01AD
:102DC000E558FF4F80E090E0AAEFB3E48083918361
:102DD000A283B3838E0109581F4FFE01E558FF4FB0
:102DE000608171818281938120E030E04AE753E481
:102DF0000E941F02DC01CB01F80180839183A28332
:102E0000B383FE01E958FF4F608171818281938114
:102E100020E030E040E85FE30E942504882344F48A
:102E2000FE01EB58FF4F81E090E09183808364C006
:102E3000FE01E958FF4F608171818281938120E01A
:102E40003FEF4FE757E40E94C50318160CF043C04C
:102E5000FE01E558FF4F608171818281938120E0FE
:102E600030E040E251E40E941F02DC01CB018E0100
:102E70000B581F4FBC01CD010E944900DC01CB0162
:102E8000F801918380831FC0FE01ED58FF4F89E157
:102E900090E091838083FE01ED58FF4F8081918106
:102EA0000197F1F7FE01ED58FF4F91838083DE011A
:102EB000AB58BF4FFE01EB58FF4F808191810197C6
:102EC00011969C938E93FE01EB58FF4F8081918168
:102ED0000097D1F627C08E010B581F4FFE01E9580D
:102EE000FF4F60817181828193810E944900DC01E2
:102EF000CB01F80191838083DE01AF58BF4FFE0103
:102F0000EB58FF4F808191818D939C93FE01EF5888
:102F1000FF4F808191810197F1F7FE01EF58FF4F3C
:102F2000918380830E946233FE01E05AFE4F8081CC
:102F3000882309F0C7C00E94623381E061E00E94EB
:102F4000E2328FE890E00E94BF3282E061E00E94AE
:102F5000E23282E191E00E94BF32FE01E359FF4F6D
:102F600080E090E0AAEFB3E480839183A283B383EF
:102F70008E0107591F4FFE01E359FF4F6081718198
:102F80008281938120E030E04AE753E40E941F02EF
:102F9000DC01CB01F80180839183A283B383FE011E
:102FA000E759FF4F608171818281938120E030E099
:102FB00040E85FE30E942504882344F4FE01E959B8
:102FC000FF4F81E090E09183808364C0FE01E75968
:102FD000FF4F608171818281938120E03FEF4FE755
:102FE00057E40E94C50318160CF043C0FE01E359D4
:102FF000FF4F608171818281938120E030E040E267
:1030000051E40E941F02DC01CB018E0109591F4FC0
:10301000BC01CD010E944900DC01CB01F801918384
:1030200080831FC0FE01EB59FF4F89E190E091833F
:103030008083FE01EB59FF4F808191810197F1F769
:10304000FE01EB59FF4F91838083DE01A959BF4FE9
:10305000FE01E959FF4F80819181019711969C9360
:103060008E93FE01E959FF4F808191810097D1F63F
:1030700027C08E0109591F4FFE01E759FF4F60819C
:103080007181828193810E944900DC01CB01F801AA
:1030900091838083DE01AD59BF4FFE01E959FF4F97
:1030A000808191818D939C93FE01ED59FF4F80812A
:1030B00091810197F1F7FE01ED59FF4F91838083D4
:1030C0000E94623381E061E00E94E23285E591E096
:1030D0000E94BF3282E061E00E94E23286E691E027
:1030E0000E94BF320E947128FE01ED59FE4F80837D
:1030F000FE01E05AFE4F1082FE01ED59FE4F808125
:10310000813039F0FE01ED59FE4F8081823009F0A7
:103110000BCFFE01E05AFE4F81E08083FE01ED59A6
:10312000FE4F8081282F30E0C859DE4F3983288335
:10313000C856D140C859DE4F88819981C856D140C0
:103140008130910561F0C859DE4FE881F981C85698
:10315000D140E230F10509F4C1C00C940B0A0E9481
:1031600062338CE391E00E94BF32FE01E15AFF4FCF
:1031700080E090E0AAEFB3E480839183A283B383DD
:103180008E01055A1F4FFE01E15AFF4F6081718188
:103190008281938120E030E04AE753E40E941F02DD
:1031A000DC01CB01F80180839183A283B383FE010C
:1031B000E55AFF4F608171818281938120E030E088
:1031C00040E85FE30E942504882344F4FE01E75AA7
:1031D000FF4F81E090E09183808364C0FE01E55A57
:1031E000FF4F608171818281938120E03FEF4FE743
:1031F00057E40E94C50318160CF043C0FE01E15AC3
:10320000FF4F608171818281938120E030E040E254
:1032100051E40E941F02DC01CB018E01075A1F4FAF
:10322000BC01CD010E944900DC01CB01F801918372
:1032300080831FC0FE01E95AFF4F89E190E091832E
:103240008083FE01E95AFF4F808191810197F1F758
:10325000FE01E95AFF4F91838083DE01A75ABF4FD9
:10326000FE01E75AFF4F80819181019711969C934F
:103270008E93FE01E75AFF4F808191810097D1F62E
:1032800027C08E01075A1F4FFE01E55AFF4F60818C
:103290007181828193810E944900DC01CB01F80198
:1032A00091838083DE01AB5ABF4FFE01E75AFF4F87
:1032B000808191818D939C93FE01EB5AFF4F808119
:1032C00091810197F1F7FE01EB5AFF4F91838083C3
:1032D0000E9462330E94111E0C940B0A0E946233FA
:1032E00088E491E00E94BF32FE01EF5AFF4F80E078
:1032F00090E0AAEFB3E480839183A283B3838E012D
:10330000035B1F4FFE01EF5AFF4F60817181828185
:10331000938120E030E04AE753E40E941F02DC0181
:10332000CB01F80180839183A283B383FE01E35B29
:10333000FF4F608171818281938120E030E040E81D
:103340005FE30E942504882344F4FE01E55BFF4F00
:1033500081E090E09183808364C0FE01E35BFF4FD6
:10336000608171818281938120E03FEF4FE757E4D4
:103370000E94C50318160CF043C0FE01EF5AFF4F20
:10338000608171818281938120E030E040E251E4EC
:103390000E941F02DC01CB018E01055B1F4FBC01A7
:1033A000CD010E944900DC01CB01F80191838083AB
:1033B0001FC0FE01E75BFF4F89E190E091838083AE
:1033C000FE01E75BFF4F808191810197F1F7FE01DC
:1033D000E75BFF4F91838083DE01A55BBF4FFE015A
:1033E000E55BFF4F80819181019711969C938E93AD
:1033F000FE01E55BFF4F808191810097D1F627C0E8
:103400008E01055B1F4FFE01E35BFF4F6081718101
:10341000828193810E944900DC01CB01F8019183F4
:103420008083DE01A95BBF4FFE01E55BFF4F80811A
:1034300091818D939C93FE01E95BFF4F8081918187
:103440000197F1F7FE01E95BFF4F918380830E94B2
:1034500062330E94021F0C940B0A81E061E00E941B
:10346000E2328DEF90E00E94BF3282E061E00E9484
:10347000E2328CE091E00E94BF32FE01ED5BFF4F33
:1034800080E090E0AAEFB3E480839183A283B383CA
:103490008E01015C1F4FFE01ED5BFF4F608171816A
:1034A0008281938120E030E04AE753E40E941F02CA
:1034B000DC01CB01F80180839183A283B383FE01F9
:1034C000FF96608171818281938120E030E040E845
:1034D0005FE30E94250488232CF481E090E09EAFF6
:1034E0008DAF46C0FE01FF9660817181828193811C
:1034F00020E03FEF4FE757E40E94C503181664F53C
:10350000FE01ED5BFF4F608171818281938120E03C
:1035100030E040E251E40E941F02DC01CB01BC011B
:10352000CD010E944900DC01CB019EAF8DAF0FC0E1
:1035300089E190E09CAF8BAF8BAD9CAD0197F1F72B
:103540009CAF8BAF8DAD9EAD01979EAF8DAF8DAD16
:103550009EAD009769F716C0FE01FF9660817181EC
:10356000828193810E944900DC01CB019EAF8DAF27
:103570008DAD9EAD9AAF89AF89AD9AAD0197F1F748
:103580009AAF89AF0E946233FE01E15AFE4F8081FB
:10359000882309F086C00E94623381E061E00E94C6
:1035A000E2328FE890E00E94BF3282E061E00E9448
:1035B000E23282E191E00E94BF3280E090E0AAEF27
:1035C000B3E48DAB9EABAFABB8AF6DA97EA98FA9AD
:1035D00098AD20E030E04AE753E40E941F02DC018E
:1035E000CB0189AB9AABABABBCAB69A97AA98BA970
:1035F0009CA920E030E040E85FE30E942504882396
:103600002CF481E090E098AB8FA73FC069A97AA91C
:103610008BA99CA920E03FEF4FE757E40E94C50328
:1036200018164CF56DA97EA98FA998AD20E030E061
:1036300040E251E40E941F02DC01CB01BC01CD013C
:103640000E944900DC01CB0198AB8FA70FC089E134
:1036500090E09EA78DA78DA59EA50197F1F79EA747
:103660008DA78FA598A9019798AB8FA78FA598A92B
:10367000009769F714C069A97AA98BA99CA90E942F
:103680004900DC01CB0198AB8FA78FA598A99CA717
:103690008BA78BA59CA50197F1F79CA78BA70E94F0
:1036A000623381E061E00E94E23285E791E00E94AE
:1036B000BF3282E061E00E94E2328FE791E00E9437
:1036C000BF3288E891E00E94BF320E947128FE015B
:1036D000ED59FE4F8083FE01E15AFE4F1082FE013C
:1036E000ED59FE4F8081813069F0FE01ED59FE4FAA
:1036F0008081823039F0FE01ED59FE4F80818330A8
:1037000009F042CFFE01E15AFE4F81E08083FE01C5
:10371000ED59FE4F8081282F30E0CA59DE4F3983A2
:103720002883C656D140CA59DE4F88819981C65632
:10373000D1408230910509F493C0CA59DE4FE88127
:10374000F981C656D140E330F10509F407C1CA59E1
:10375000DE4F28813981C656D1402130310511F024
:103760000C940B0A0E9462338CE391E00E94BF32FA
:1037700080E090E0AAEFB3E48FA398A7A9A7BAA727
:103780006FA178A589A59AA520E030E04AE753E427
:103790000E941F02DC01CB018BA39CA3ADA3BEA39F
:1037A0006BA17CA18DA19EA120E030E040E85FE309
:1037B0000E94250488232CF481E090E09AA389A339
:1037C0003FC06BA17CA18DA19EA120E03FEF4FE700
:1037D00057E40E94C50318164CF56FA178A589A57A
:1037E0009AA520E030E040E251E40E941F02DC0193
:1037F000CB01BC01CD010E944900DC01CB019AA3A1
:1038000089A30FC089E190E098A38F8F8F8D98A135
:103810000197F1F798A38F8F89A19AA101979AA395
:1038200089A389A19AA1009769F714C06BA17CA113
:103830008DA19EA10E944900DC01CB019AA389A31E
:1038400089A19AA19E8F8D8F8D8D9E8D0197F1F705
:103850009E8F8D8F0E9462330E94BB200C940B0AB6
:103860000E94623388E491E00E94BF3280E090E0E1
:10387000AAEFB3E4898F9A8FAB8FBC8F698D7A8D55
:103880008B8D9C8D20E030E04AE753E40E941F02BC
:10389000DC01CB018D8B9E8BAF8BB88F6D897E89C0
:1038A0008F89988D20E030E040E85FE30E94250496
:1038B00088232CF481E090E09C8B8B8B3FC06D893A
:1038C0007E898F89988D20E03FEF4FE757E40E9473
:1038D000C50318164CF5698D7A8D8B8D9C8D20E073
:1038E00030E040E251E40E941F02DC01CB01BC0148
:1038F000CD010E944900DC01CB019C8B8B8B0FC05A
:1039000089E190E09A8B898B89899A890197F1F7EF
:103910009A8B898B8B899C8901979C8B8B8B8B894C
:103920009C89009769F714C06D897E898F89988D6D
:103930000E944900DC01CB019C8B8B8B8B899C897D
:10394000988B8F878F8598890197F1F7988B8F8750
:103950000E9462330E94D8220C940B0A0E946233A8
:1039600081E991E00E94BF3280E090E0AAEFB3E4E9
:103970008B879C87AD87BE876B857C858D859E8573
:1039800020E030E04AE753E40E941F02DC01CB0153
:103990008F839887A987BA876F81788589859A856B
:1039A00020E030E040E85FE30E94250488232CF407
:1039B00081E090E09E838D833FC06F81788589850B
:1039C0009A8520E03FEF4FE757E40E94C5031816A1
:1039D0004CF56B857C858D859E8520E030E040E24E
:1039E00051E40E941F02DC01CB01BC01CD010E9409
:1039F0004900DC01CB019E838D830FC089E190E0FB
:103A00009C838B838B819C810197F1F79C838B83B3
:103A10008D819E8101979E838D838D819E810097EC
:103A200069F714C06F81788589859A850E9449005D
:103A3000DC01CB019E838D838D819E819A83898356
:103A400089819A810197F1F79A8389830E94623371
:103A50000E948D230C940B0ADF93CF93CDB7DEB772
:103A600083E062E040E00E946B2483E062E041E09A
:103A70000E946525A5E5B0E0E5E5F0E080818C7F5A
:103A800082608C93ABE5B0E0EBE5F0E08081806490
:103A90008C93CF91DF9108951F920F920FB60F92E2
:103AA00011248F93DF93CF93CDB7DEB78091BC0203
:103AB000813031F481E08093BB021092BC0216C0C9
:103AC0008091BA02813031F481E08093BB02109280
:103AD000BA020CC08091BD02813031F481E0809344
:103AE000BB021092BD0202C01092BB02CF91DF91C7
:103AF0008F910F900FBE0F901F901895DF93CF936B
:103B000000D0CDB7DEB79A838983A6E2B0E0E6E2C3
:103B1000F0E0808180688C93A7E2B0E0E7E2F0E01B
:103B20008081282F2F73E981FA818081882F90E08E
:103B30000024969587950794969587950794982FD6
:103B4000802D822B8C93A7E2B0E0E7E2F0E0808149
:103B50008F7D8C93A6E2B0E0E6E2F0E08081877F83
:103B60008C93A6E2B0E0E6E2F0E08081982F987FA7
:103B7000E981FA8181818770892B8C930F900F9056
:103B8000CF91DF910895DF93CF930F92CDB7DEB73A
:103B90008983A7E2B0E0E7E2F0E08081982F907E91
:103BA0008981892B8C93A6E2B0E0E6E2F0E0808187
:103BB00080648C93E6E2F0E08081882F90E0807151
:103BC00090700097B9F3A6E2B0E0E6E2F0E0808101
:103BD00080618C93E4E2F0E0808191810F90CF913D
:103BE000DF910895DF93CF93CDB7DEB7A6E2B0E0C3
:103BF000E6E2F0E080818F778C93CF91DF9108959A
:103C0000DF93CF93CDB7DEB781E067E041E00E945C
:103C10006B2482E066E041E00E946B24CF91DF914B
:103C20000895DF93CF93CDB7DEB764970FB6F894BE
:103C3000DEBF0FBECDBF81E08093BC0281E067E0B4
:103C400041E00E94652582E066E041E00E94652532
:103C500085E00E94C31D9C8B8B8B8091BB028130C1
:103C600051F41092BB0282E066E040E00E946525BC
:103C70000E946233BEC02B893C89C901880F991FFD
:103C8000880F991F820F931F865D91402FE230E0CD
:103C9000B9010E94E435CB010A96CC01A0E0B0E066
:103CA000BC01CD010E94A904DC01CB018F87988B58
:103CB000A98BBA8B8B899C898F35910508F48BC0B1
:103CC0008B899C8923E08C3A920708F084C00E947B
:103CD000623381E061E00E94E2328F859889A98990
:103CE000BA89BC01CD010E9466348DE991E00E9441
:103CF000BF3280E090E0AAEFB3E48B879C87AD876A
:103D0000BE876B857C858D859E8520E030E04AE707
:103D100053E40E941F02DC01CB018F839887A9879F
:103D2000BA876F81788589859A8520E030E040E800
:103D30005FE30E94250488232CF481E090E09E83B9
:103D40008D833FC06F81788589859A8520E03FEF1C
:103D50004FE757E40E94C50318164CF56B857C8528
:103D60008D859E8520E030E040E251E40E941F02F4
:103D7000DC01CB01BC01CD010E944900DC01CB017B
:103D80009E838D830FC089E190E09C838B838B8120
:103D90009C810197F1F79C838B838D819E81019794
:103DA0009E838D838D819E81009769F714C06F81FA
:103DB000788589859A850E944900DC01CB019E8324
:103DC0008D838D819E819A83898389819A810197D0
:103DD000F1F79A8389838091BB02813009F038CF53
:103DE0001092BB0282E066E040E00E9465250E94DE
:103DF000623364960FB6F894DEBF0FBECDBFCF918D
:103E0000DF910895DF93CF93CDB7DEB7A2970FB6BA
:103E1000F894DEBF0FBECDBF81E08093BC0282E08C
:103E200066E041E00E94652581E067E040E00E9495
:103E3000652585E00E94C31D9AA389A389A19AA143
:103E4000CC01A0E0B0E0BC01CD010E94A904DC01DE
:103E5000CB01BC01CD0123E333E340EC52E40E94EB
:103E6000C101DC01CB01BC01CD0120E030E040E12B
:103E700051E40E941F02DC01CB01BC01CD0120E016
:103E800038E247E056E40E941903DC01CB01BC0193
:103E9000CD012DEC3CEC4CEC5DE30E94F201DC0129
:103EA000CB018D8F9E8FAF8FB8A38091BB028130E5
:103EB00051F41092BB0282E066E040E00E9465256A
:103EC0000E94623339C189A19AA18F35910508F406
:103ED0009CC089A19AA123E08C3A920708F095C072
:103EE0006D8D7E8D8F8D98A120E030E04AE754E4FF
:103EF0000E941F02DC01CB018D8F9E8FAF8FB8A374
:103F00000E94623381E061E00E94E2328D8D9E8DDD
:103F1000AF8DB8A1BC01CD010E9466348DE991E05E
:103F20000E94BF3280E090E0AAEFB3E4898F9A8FBD
:103F3000AB8FBC8F698D7A8D8B8D9C8D20E030E0AE
:103F40004AE753E40E941F02DC01CB018D8B9E8B5C
:103F5000AF8BB88F6D897E898F89988D20E030E096
:103F600040E85FE30E94250488232CF481E090E080
:103F70009C8B8B8B3FC06D897E898F89988D20E0CB
:103F80003FEF4FE757E40E94C50318164CF5698DC3
:103F90007A8D8B8D9C8D20E030E040E251E40E94D0
:103FA0001F02DC01CB01BC01CD010E944900DC01F4
:103FB000CB019C8B8B8B0FC089E190E09A8B898B16
:103FC00089899A890197F1F79A8B898B8B899C89CA
:103FD00001979C8B8B8B8B899C89009769F7A0C07C
:103FE0006D897E898F89988D0E944900DC01CB0103
:103FF0009C8B8B8B8B899C89988B8F878F859889DD
:104000000197F1F7988B8F878BC089A19AA123E044
:10401000813C920708F484C00E94623381E061E031
:104020000E94E2328D8D9E8DAF8DB8A1BC01CD0175
:104030000E94663481EA91E00E94BF3280E090E005
:10404000AAEFB3E48B879C87AD87BE876B857C85A1
:104050008D859E8520E030E04AE753E40E941F02F0
:10406000DC01CB018F839887A987BA876F81788518
:1040700089859A8520E030E040E85FE30E942504CE
:1040800088232CF481E090E09E838D833FC06F8174
:10409000788589859A8520E03FEF4FE757E40E94B5
:1040A000C50318164CF56B857C858D859E8520E0B3
:1040B00030E040E251E40E941F02DC01CB01BC0170
:1040C000CD010E944900DC01CB019E838D830FC08E
:1040D00089E190E09C838B838B819C810197F1F730
:1040E0009C838B838D819E8101979E838D838D819F
:1040F0009E81009769F714C06F81788589859A85BC
:104100000E944900DC01CB019E838D838D819E81BD
:104110009A83898389819A810197F1F79A838983A8
:104120008091BB02813009F084CE1092BB0282E004
:1041300066E040E00E946525A2960FB6F894DEBFC7
:104140000FBECDBFCF91DF910895DF93CF93CDB751
:10415000DEB781E065E041E00E946B2481E066E02B
:1041600041E00E946B2482E067E041E00E946B2402
:10417000CF91DF910895DF93CF93CDB7DEB7E2976C
:104180000FB6F894DEBF0FBECDBF82E067E041E01E
:104190000E94652581E08093BD0281E065E040E0FA
:1041A0000E94652581E066E040E00E94652581E08F
:1041B00061E00E94E23284E00E94C31DCC01A0E0D5
:1041C000B0E0BC01CD010E94A904DC01CB01BC011F
:1041D000CD0120E030EC4FE754E40E941903DC01EC
:1041E000CB01BC01CD0120E030E040EA50E40E9468
:1041F0001F02DC01CB018FA798ABA9ABBAAB80E063
:1042000090E0A8ECB2E48FA398A7A9A7BAA76FA1E2
:1042100078A589A59AA520E030E04AE753E40E94FA
:104220001F02DC01CB018BA39CA3ADA3BEA36BA19A
:104230007CA18DA19EA120E030E040E85FE30E94D8
:10424000250488232CF481E090E09AA389A33FC041
:104250006BA17CA18DA19EA120E03FEF4FE757E429
:104260000E94C50318164CF56FA178A589A59AA5DB
:1042700020E030E040E251E40E941F02DC01CB016B
:10428000BC01CD010E944900DC01CB019AA389A3A6
:104290000FC089E190E098A38F8F8F8D98A101972F
:1042A000F1F798A38F8F89A19AA101979AA389A367
:1042B00089A19AA1009769F714C06BA17CA18DA177
:1042C0009EA10E944900DC01CB019AA389A389A188
:1042D0009AA19E8F8D8F8D8D9E8D0197F1F79E8F68
:1042E0008D8F60E070E080EA90E42FA538A949A99D
:1042F0005AA90E94C101DC01CB019C01AD0160E023
:1043000070E880E193E40E941903DC01CB01BC0159
:10431000CD012FA538A949A95AA90E941F02DC0185
:10432000CB018BA79CA7ADA7BEA78091BB02813014
:1043300051F41092BB0282E067E040E00E946525E4
:104340000E9462332CC16BA57CA58DA59EA520E0A3
:1043500030E04AE754E40E94C50318160CF091C0FF
:104360006BA57CA58DA59EA520E030E04AE754E42E
:104370000E941903DC01CB018BA79CA7ADA7BEA7A8
:104380000E9462338BA59CA5ADA5BEA5BC01CD0145
:104390000E94663484EA91E00E94BF3280E090E09F
:1043A000AAEFB3E4898F9A8FAB8FBC8F698D7A8D1A
:1043B0008B8D9C8D20E030E04AE753E40E941F0281
:1043C000DC01CB018D8B9E8BAF8BB88F6D897E8985
:1043D0008F89988D20E030E040E85FE30E9425045B
:1043E00088232CF481E090E09C8B8B8B3FC06D89FF
:1043F0007E898F89988D20E03FEF4FE757E40E9438
:10440000C50318164CF5698D7A8D8B8D9C8D20E037
:1044100030E040E251E40E941F02DC01CB01BC010C
:10442000CD010E944900DC01CB019C8B8B8B0FC01E
:1044300089E190E09A8B898B89899A890197F1F7B4
:104440009A8B898B8B899C8901979C8B8B8B8B8911
:104450009C89009769F795C06D897E898F89988DB1
:104460000E944900DC01CB019C8B8B8B8B899C8942
:10447000988B8F878F8598890197F1F7988B8F8715
:1044800080C00E9462338BA59CA5ADA5BEA5BC01D2
:10449000CD010E94663489EA91E00E94BF3280E03B
:1044A00090E0AAEFB3E48B879C87AD87BE876B85CE
:1044B0007C858D859E8520E030E04AE753E40E94AC
:1044C0001F02DC01CB018F839887A987BA876F8190
:1044D000788589859A8520E030E040E85FE30E9496
:1044E000250488232CF481E090E09E838D833FC0D7
:1044F0006F81788589859A8520E03FEF4FE757E403
:104500000E94C50318164CF56B857C858D859E85AC
:1045100020E030E040E251E40E941F02DC01CB01C8
:10452000BC01CD010E944900DC01CB019E838D833B
:104530000FC089E190E09C838B838B819C810197E4
:10454000F1F79C838B838D819E8101979E838D8360
:104550008D819E81009769F714C06F817885898568
:104560009A850E944900DC01CB019E838D838D8159
:104570009E819A83898389819A810197F1F79A8331
:1045800089838091BB02813009F011CE1092BB0269
:1045900082E067E040E00E9465250E946233E29677
:1045A0000FB6F894DEBF0FBECDBFCF91DF91089557
:1045B000DF93CF93CDB7DEB728970FB6F894DEBF61
:1045C0000FBECDBF82E067E041E00E94652581E03B
:1045D0008093BD0281E065E041E00E94652581E0B5
:1045E00066E040E00E9465258091BB02813051F475
:1045F0001092BB0282E067E040E00E9465250E94C5
:10460000623382C081E061E00E94E23284E00E9475
:10461000C31DCC01A0E0B0E0BC01CD010E94A90403
:10462000DC01CB01BC01CD0120E030EC4FE754E4CC
:104630000E941903DC01CB01BC01CD0120E030E078
:1046400040EA50E40E941F02DC01CB018D839E836F
:10465000AF83B88760E070E080EA90E42D813E810E
:104660004F8158850E94C101DC01CB019C01AD0145
:1046700060E070E687E894E40E941903DC01CB0156
:10468000BC01CD012D813E814F8158850E941F02C2
:10469000DC01CB0189839A83AB83BC8369817A81F6
:1046A0008B819C8120E030E04AE754E40E94C503FE
:1046B0001816E4F469817A818B819C8120E030E0D6
:1046C0004AE754E40E941903DC01CB0189839A83F1
:1046D000AB83BC8389819A81AB81BC81BC01CD0154
:1046E0000E94663484EA91E00E94BF328091BB024E
:1046F000813009F079CF1092BB0282E067E040E0A0
:104700000E9465250E94623328960FB6F894DEBF9A
:104710000FBECDBFCF91DF910895DF93CF93CDB77B
:10472000DEB728970FB6F894DEBF0FBECDBF81E08D
:104730008093BD0282E067E041E00E94652581E050
:1047400065E040E00E94652581E066E041E00E946E
:10475000652581E061E00E94E23284E00E94C31D91
:10476000CC01A0E0B0E0BC01CD010E94A904DC01B5
:10477000CB01BC01CD0120E030EC4FE754E40E94B6
:104780001903DC01CB01BC01CD0120E030E040EA9F
:1047900050E40E941F02DC01CB018D839E83AF8316
:1047A000B88760E070E080EA90E42D813E814F811F
:1047B00058850E94C101DC01CB019C01AD0160E87C
:1047C00077E983EC97E40E941903DC01CB01BC017B
:1047D000CD012D813E814F8158850E941F02DC0151
:1047E000CB0189839A83AB83BC838091BB028130E8
:1047F00051F41092BB0282E067E040E00E94652520
:104800000E9462335FC069817A818B819C8120E044
:1048100034E244E759E40E94C5031816ECF46981B8
:104820007A818B819C8120E034E244E759E40E9444
:104830001903DC01CB0189839A83AB83BC83898113
:104840009A81AB81BC81BC01CD010E9466348DEAA6
:1048500091E00E94BF3228C069817A818B819C815E
:1048600020E030E04AE754E40E94C5031816E4F45F
:1048700069817A818B819C8120E030E04AE754E4B1
:104880000E941903DC01CB0189839A83AB83BC832B
:1048900089819A81AB81BC81BC01CD010E946634C3
:1048A00084EA91E00E94BF328091BB02813009F01E
:1048B00050CF1092BB0282E067E040E00E94652585
:1048C0000E94623328960FB6F894DEBF0FBECDBFAC
:1048D000CF91DF910895DF93CF9300D000D00F9256
:1048E000CDB7DEB789836A834B838981843008F032
:1048F000E4C08A81883008F0E0C08981282F30E048
:104900003D832C838C819D818130910509F447C0C2
:104910002C813D81223031052CF48C819D810097C2
:1049200071F0CBC02C813D812230310509F467C084
:104930008C819D818330910509F491C0BEC08B812B
:104940008823A9F4AAE3B0E0EAE3F0E08081482FED
:104950008A81282F30E081E090E0022E02C0880F8B
:10496000991F0A94E2F7809584238C93A6C08B81CB
:10497000813009F0A2C0AAE3B0E0EAE3F0E0808170
:10498000482F8A81282F30E081E090E0022E02C07B
:10499000880F991F0A94E2F7842B8C938EC08B8129
:1049A0008823A9F4A7E3B0E0E7E3F0E08081482F93
:1049B0008A81282F30E081E090E0022E02C0880F2B
:1049C000991F0A94E2F7809584238C9376C08B819B
:1049D000813009F072C0A7E3B0E0E7E3F0E0808146
:1049E000482F8A81282F30E081E090E0022E02C01B
:1049F000880F991F0A94E2F7842B8C935EC08B81F9
:104A00008823A9F4A4E3B0E0E4E3F0E08081482F38
:104A10008A81282F30E081E090E0022E02C0880FCA
:104A2000991F0A94E2F7809584238C9346C08B816A
:104A3000813009F042C0A4E3B0E0E4E3F0E080811B
:104A4000482F8A81282F30E081E090E0022E02C0BA
:104A5000880F991F0A94E2F7842B8C932EC08B81C8
:104A60008823A9F4A1E3B0E0E1E3F0E08081482FDE
:104A70008A81282F30E081E090E0022E02C0880F6A
:104A8000991F0A94E2F7809584238C9316C08B813A
:104A9000813099F4A1E3B0E0E1E3F0E08081482FB8
:104AA0008A81282F30E081E090E0022E02C0880F3A
:104AB000991F0A94E2F7842B8C930F900F900F901C
:104AC0000F900F90CF91DF910895DF93CF9300D097
:104AD00000D00F92CDB7DEB789836A834B8389817B
:104AE000843008F0E4C08A81883008F0E0C0898111
:104AF000282F30E03D832C838C819D81813091056E
:104B000009F447C02C813D81223031052CF48C8181
:104B10009D81009771F0CBC02C813D812230310501
:104B200009F467C08C819D818330910509F491C09F
:104B3000BEC08B818823A9F4ABE3B0E0EBE3F0E0E7
:104B40008081482F8A81282F30E081E090E0022E7A
:104B500002C0880F991F0A94E2F7809584238C93F2
:104B6000A6C08B81813009F0A2C0ABE3B0E0EBE3DB
:104B7000F0E08081482F8A81282F30E081E090E0AA
:104B8000022E02C0880F991F0A94E2F7842B8C939F
:104B90008EC08B818823A9F4A8E3B0E0E8E3F0E0BD
:104BA0008081482F8A81282F30E081E090E0022E1A
:104BB00002C0880F991F0A94E2F7809584238C9392
:104BC00076C08B81813009F072C0A8E3B0E0E8E3E1
:104BD000F0E08081482F8A81282F30E081E090E04A
:104BE000022E02C0880F991F0A94E2F7842B8C933F
:104BF0005EC08B818823A9F4A5E3B0E0E5E3F0E093
:104C00008081482F8A81282F30E081E090E0022EB9
:104C100002C0880F991F0A94E2F7809584238C9331
:104C200046C08B81813009F042C0A5E3B0E0E5E3E6
:104C3000F0E08081482F8A81282F30E081E090E0E9
:104C4000022E02C0880F991F0A94E2F7842B8C93DE
:104C50002EC08B818823A9F4A2E3B0E0E2E3F0E068
:104C60008081482F8A81282F30E081E090E0022E59
:104C700002C0880F991F0A94E2F7809584238C93D1
:104C800016C08B81813099F4A2E3B0E0E2E3F0E05A
:104C90008081482F8A81282F30E081E090E0022E29
:104CA00002C0880F991F0A94E2F7842B8C930F900F
:104CB0000F900F900F900F90CF91DF910895DF9399
:104CC000CF9300D000D0CDB7DEB789836A838981C6
:104CD000843008F072C08A81883008F06EC0898103
:104CE000282F30E03C832B838B819C818130910580
:104CF00049F12B813C81223031052CF48B819C8140
:104D0000009761F05AC02B813C812230310571F14E
:104D10008B819C8183309105E9F14FC0ABE3B0E01A
:104D2000EBE3F0E08081482F8A81282F30E081E09A
:104D300090E0022E02C0880F991F0A94E2F78427A0
:104D40008C933BC0A8E3B0E0E8E3F0E08081482F1B
:104D50008A81282F30E081E090E0022E02C0880F87
:104D6000991F0A94E2F784278C9327C0A5E3B0E04B
:104D7000E5E3F0E08081482F8A81282F30E081E050
:104D800090E0022E02C0880F991F0A94E2F7842750
:104D90008C9313C0A2E3B0E0E2E3F0E08081482FFF
:104DA0008A81282F30E081E090E0022E02C0880F37
:104DB000991F0A94E2F784278C930F900F900F901D
:104DC0000F90CF91DF910895DF93CF9300D000D063
:104DD00000D0CDB7DEB78A836B8319828A81843095
:104DE00018F48B81883018F029812E8382C08A8143
:104DF000482F50E05D834C838C819D8181309105EB
:104E000079F12C813D812230310534F44C815D8172
:104E10004115510569F06BC08C819D8182309105EF
:104E2000B9F12C813D812330310509F449C05FC0BF
:104E3000E9E3F0E08081282F30E08B81882F90E03B
:104E4000A90102C0559547958A95E2F7CA0181707C
:104E50009070882319F081E0898349C0198247C086
:104E6000E6E3F0E08081282F30E08B81882F90E00E
:104E7000A90102C0559547958A95E2F7CA0181704C
:104E80009070882319F081E0898331C019822FC086
:104E9000E3E3F0E08081282F30E08B81882F90E0E1
:104EA000A90102C0559547958A95E2F7CA0181701C
:104EB0009070882319F081E0898319C0198217C086
:104EC000E0E3F0E08081282F30E08B81882F90E0B4
:104ED000A90102C0559547958A95E2F7CA018170EC
:104EE0009070882319F081E0898301C0198259816B
:104EF0005E838E8126960FB6F894DEBF0FBECDBFBF
:104F0000CF91DF910895DF93CF9300D000D0CDB73C
:104F1000DEB789836A8389818430C0F58A818823DA
:104F200019F08A818F3F91F58981282F30E03C83E9
:104F30002B838B819C8181309105D1F02B813C8129
:104F4000223031052CF48B819C81009761F01EC0CA
:104F50002B813C812230310581F08B819C81833013
:104F6000910581F013C0EAE3F0E08A8180830EC0EE
:104F7000E7E3F0E08A81808309C0E4E3F0E08A811E
:104F8000808304C0E1E3F0E08A8180830F900F907A
:104F90000F900F90CF91DF910895DF93CF9300D0C2
:104FA00000D0CDB7DEB789836A838981843090F5DC
:104FB0008981282F30E03C832B838B819C81813039
:104FC0009105D1F02B813C81223031052CF48B816D
:104FD0009C81009761F01EC02B813C8122303105FD
:104FE00081F08B819C818330910581F013C0EBE3CC
:104FF000F0E08A8180830EC0E8E3F0E08A8180835C
:1050000009C0E5E3F0E08A81808304C0E2E3F0E0D8
:105010008A8180830F900F900F900F90CF91DF9136
:105020000895DF93CF9300D000D0CDB7DEB78A8349
:1050300019828A81843090F58A81282F30E03C8360
:105040002B838B819C8181309105D1F02B813C8118
:10505000223031052CF48B819C81009761F01EC0B9
:105060002B813C812230310581F08B819C81833002
:10507000910581F013C0E9E3F0E0808189830EC0DF
:10508000E6E3F0E08081898309C0E3E3F0E080811A
:10509000898304C0E0E3F0E08081898389810F90F7
:1050A0000F900F900F90CF91DF910895DF93CF93E2
:1050B000CDB7DEB781E060E040E00E946B2481E084
:1050C00061E040E00E946B2481E062E040E00E94E9
:1050D0006B2481E063E040E00E946B24CF91DF917C
:1050E0000895DF93CF93CDB7DEB767970FB6F894E7
:1050F000DEBF0FBECDBF80E060E040E00E946B24C9
:1051000080E061E040E00E946B2480E062E040E0EB
:105110000E946B2480E063E040E00E946B24198AC7
:1051200043C18989282F30E03F8B2E8B8E899F8940
:105130008130910501F12E893F89223031052CF40F
:105140008E899F89009761F036C02E893F89223071
:105150003105E1F08E899F898330910511F12BC0D3
:1051600080E060E041E00E946B2480E060E040E08D
:105170000E94652520C080E061E041E00E946B2430
:1051800080E061E040E00E94652515C080E062E0BB
:1051900041E00E946B2480E062E040E00E946525CF
:1051A0000AC080E063E041E00E946B2480E063E09D
:1051B00040E00E946525188A48C08889282F30E081
:1051C0003D8B2C8B8C899D8981309105B9F02C8980
:1051D0003D89223031052CF48C899D89009761F03E
:1051E00015C02C893D892230310559F08C899D8963
:1051F0008330910549F00AC01F8608C081E08F877F
:1052000005C082E08F8702C083E08F8781E06F85D1
:105210000E94E4268823B1F48989882F90E0880FC2
:10522000991F880F991F982F8889890F8F5F0E9477
:10523000D92967960FB6F894DEBF0FBECDBFCF91C8
:10524000DF91089588898F5F888B8889843008F47E
:10525000B4CF8989282F30E03B8B2A8B8A899B89A0
:1052600081309105D9F02A893B89223031052CF40F
:105270008A899B89009761F022C02A893B89223064
:10528000310591F08A899B898330910599F017C087
:1052900080E060E040E00E946B2411C080E061E0AB
:1052A00040E00E946B240BC080E062E040E00E947E
:1052B0006B2405C080E063E040E00E946B2480E046
:1052C00090E0A0EAB0E48B879C87AD87BE876B85B2
:1052D0007C858D859E8520E030E04AE753E40E947E
:1052E0001F02DC01CB018F839887A987BA876F8162
:1052F000788589859A8520E030E040E85FE30E9468
:10530000250488232CF481E090E09E838D833FC0A8
:105310006F81788589859A8520E03FEF4FE757E4D4
:105320000E94C50318164CF56B857C858D859E857E
:1053300020E030E040E251E40E941F02DC01CB019A
:10534000BC01CD010E944900DC01CB019E838D830D
:105350000FC089E190E09C838B838B819C810197B6
:10536000F1F79C838B838D819E8101979E838D8332
:105370008D819E81009769F714C06F81788589853A
:105380009A850E944900DC01CB019E838D838D812B
:105390009E819A83898389819A810197F1F79A8303
:1053A000898389898F5F898B8989843008F4B9CE94
:1053B000B6CEDF93CF9300D000D0CDB7DEB78A83CF
:1053C00019828A81282F30E03C832B838B819C813A
:1053D0008830910509F470C02B813C81293031055A
:1053E0005CF58B819C818430910509F459C02B8137
:1053F0003C81253031059CF48B819C818230910564
:1054000009F448C02B813C81233031050CF045C0A4
:105410008B819C818130910509F439C066C02B8154
:105420003C812630310509F441C08B819C81873055
:1054300091050CF03EC037C02B813C812C303105EA
:1054400009F446C08B819C818D3091055CF42B81E1
:105450003C812A303105B1F18B819C818B309105E3
:10546000A4F52DC02B813C812E303105B9F18B8103
:105470009C818E3091057CF12B813C812F30310550
:1054800079F18B819C818031910569F12EC081E099
:1054900089832BC082E0898328C083E0898325C06B
:1054A00081E4898322C084E089831FC085E08983E9
:1054B0001CC086E0898319C082E4898316C087E016
:1054C000898313C088E0898310C089E089830DC077
:1054D00083E489830AC08AE2898307C0198205C0F0
:1054E00083E2898302C084E4898389810F900F90CD
:1054F0000F900F90CF91DF910895DF93CF93CDB7A9
:10550000DEB72E970FB6F894DEBF0FBECDBF83E097
:1055100060E041E00E946B2483E061E041E00E9492
:105520006B2483E064E041E00E946B2483E065E04B
:1055300041E00E946B2483E066E041E00E946B241E
:1055400083E067E041E00E946B2480E090E0A0EA05
:10555000B1E48B879C87AD87BE876B857C858D8505
:105560009E8520E030E04AE753E40E941F02DC0100
:10557000CB018F839887A987BA876F8178858985C2
:105580009A8520E030E040E85FE30E94250488230C
:105590002CF481E090E09E838D833FC06F817885FD
:1055A00089859A8520E03FEF4FE757E40E94C503C5
:1055B00018164CF56B857C858D859E8520E030E046
:1055C00040E251E40E941F02DC01CB01BC01CD018D
:1055D0000E944900DC01CB019E838D830FC089E1CD
:1055E00090E09C838B838B819C810197F1F79C8356
:1055F0008B838D819E8101979E838D838D819E817A
:10560000009769F714C06F81788589859A850E9413
:105610004900DC01CB019E838D838D819E819A831D
:10562000898389819A810197F1F79A83898383E33A
:105630000E942F2B82E30E942F2B88E20E942F2BA7
:105640008CE00E942F2B81E00E942F2B2E960FB60C
:10565000F894DEBF0FBECDBFCF91DF9108950F93B9
:105660001F93DF93CF93CDB7DEB7C555D0400FB6AC
:10567000F894DEBF0FBECDBFFE01EB5AFF4F808313
:1056800083E060E040E00E946525FE01EF5AFF4F95
:1056900080E090E0A0E8BFE380839183A283B3839E
:1056A0008E01035B1F4FFE01EF5AFF4F6081718136
:1056B0008281938120E030E04AE753E40E941F0298
:1056C000DC01CB01F80180839183A283B383FE01C7
:1056D000E35BFF4F608171818281938120E030E044
:1056E00040E85FE30E942504882344F4FE01E55B63
:1056F000FF4F81E090E09183808364C0FE01E35B13
:10570000FF4F608171818281938120E03FEF4FE7FD
:1057100057E40E94C50318160CF043C0FE01EF5A6F
:10572000FF4F608171818281938120E030E040E20F
:1057300051E40E941F02DC01CB018E01055B1F4F6B
:10574000BC01CD010E944900DC01CB01F80191832D
:1057500080831FC0FE01E75BFF4F89E190E09183EA
:105760008083FE01E75BFF4F808191810197F1F714
:10577000FE01E75BFF4F91838083DE01A55BBF4F96
:10578000FE01E55BFF4F80819181019711969C930B
:105790008E93FE01E55BFF4F808191810097D1F6EA
:1057A00027C08E01055B1F4FFE01E35BFF4F608149
:1057B0007181828193810E944900DC01CB01F80153
:1057C00091838083DE01A95BBF4FFE01E55BFF4F44
:1057D000808191818D939C93FE01E95BFF4F8081D5
:1057E00091810197F1F7FE01E95BFF4F918380837F
:1057F00083E061E041E00E946525FE01ED5BFF4F23
:1058000080E090E0A0E8BFE380839183A283B3832C
:105810008E01015C1F4FFE01ED5BFF4F60817181C6
:105820008281938120E030E04AE753E40E941F0226
:10583000DC01CB01F80180839183A283B383FE0155
:10584000FF96608171818281938120E030E040E8A1
:105850005FE30E94250488232CF481E090E09EAF52
:105860008DAF46C0FE01FF96608171818281938178
:1058700020E03FEF4FE757E40E94C503181664F598
:10588000FE01ED5BFF4F608171818281938120E099
:1058900030E040E251E40E941F02DC01CB01BC0178
:1058A000CD010E944900DC01CB019EAF8DAF0FC03E
:1058B00089E190E09CAF8BAF8BAD9CAD0197F1F788
:1058C0009CAF8BAF8DAD9EAD01979EAF8DAF8DAD73
:1058D0009EAD009769F716C0FE01FF966081718149
:1058E000828193810E944900DC01CB019EAF8DAF84
:1058F0008DAD9EAD9AAF89AF89AD9AAD0197F1F7A5
:105900009AAF89AFFE01EB5AFF4F8081882F90E05C
:1059100080719070959587959595879595958795C4
:1059200095958795982F83E064E0492F0E9465251F
:10593000FE01EB5AFF4F8081882F90E080729070BB
:10594000959587959595879595958795959587953F
:1059500095958795982F83E065E0492F0E946525EE
:10596000FE01EB5AFF4F8081882F90E08074907089
:10597000082E892F000C881F990B000C881F991F77
:10598000982F83E066E0492F0E946525FE01EB5ABF
:10599000FF4F8081982F991F9927991F83E067E017
:1059A000492F0E94652580E090E0A0E8BFE38DAB21
:1059B0009EABAFABB8AF6DA97EA98FA998AD20E023
:1059C00030E04AE753E40E941F02DC01CB0189ABBF
:1059D0009AABABABBCAB69A97AA98BA99CA920E017
:1059E00030E040E85FE30E94250488232CF481E046
:1059F00090E098AB8FA73FC069A97AA98BA99CA911
:105A000020E03FEF4FE757E40E94C50318164CF51E
:105A10006DA97EA98FA998AD20E030E040E251E465
:105A20000E941F02DC01CB01BC01CD010E94490094
:105A3000DC01CB0198AB8FA70FC089E190E09EA756
:105A40008DA78DA59EA50197F1F79EA78DA78FA580
:105A500098A9019798AB8FA78FA598A9009769F788
:105A600014C069A97AA98BA99CA90E944900DC01EC
:105A7000CB0198AB8FA78FA598A99CA78BA78BA5C7
:105A80009CA50197F1F79CA78BA783E061E040E01C
:105A90000E94652580E090E0A0E8BFE38FA398A76F
:105AA000A9A7BAA76FA178A589A59AA520E030E09B
:105AB0004AE753E40E941F02DC01CB018BA39CA3A5
:105AC000ADA3BEA36BA17CA18DA19EA120E030E07F
:105AD00040E85FE30E94250488232CF481E090E0F5
